:020000040800F2
:1000000000000220D52E0008E9050008EB050008D5
:10001000ED050008EF050008F105000800000000EC
:10002000000000000000000000000000F3050008D0
:10003000F505000800000000F7050008F9050008B4
:10004000252F0008252F0008252F0008252F000840
:10005000252F0008252F0008252F0008252F000830
:10006000252F0008252F0008252F0008252F000820
:10007000252F0008252F0008252F0008252F000810
:10008000252F0008252F0008252F0008252F000800
:10009000252F0008252F0008252F0008252F0008F0
:1000A000252F0008252F0008252F0008252F0008E0
:1000B000252F0008252F0008252F0008252F0008D0
:1000C000252F0008252F0008252F0008252F0008C0
:1000D000252F0008252F0008252F0008252F0008B0
:1000E00001060008252F0008252F0008252F0008ED
:1000F000252F0008252F0008252F0008252F000890
:10010000252F0008252F0008252F0008252F00087F
:10011000252F0008252F0008252F0008252F00086F
:10012000252F0008252F0008252F0008252F00085F
:10013000252F0008252F0008252F0008252F00084F
:10014000252F0008252F0008252F0008252F00083F
:10015000252F0008252F0008252F0008252F00082F
:10016000252F0008252F0008252F0008252F00081F
:10017000252F0008252F0008252F0008252F00080F
:10018000252F0008252F0008252F0008252F0008FF
:10019000252F000800000000252F0008252F00084B
:1001A000252F0008252F0008252F0008252F0008DF
:1001B000252F0008252F0008252F0008252F0008CF
:1001C000252F0008252F0008252F0008252F0008BF
:0801D000252F0008252F00086F
:1001E000034613F8012B002AFBD1181A0138704777
:1001F00001F0FF01102A2BDB10F0070F08D010F8D8
:10020000013B013A8B422DD010F0070F42B3F6D1DB
:10021000F0B441EA012141EA014122F007047FF0F4
:1002200000070023F0E80256083C85EA010586EA4B
:10023000010685FA47F5A3FA87F586FA47F6A5FA87
:1002400087F68EB9EED1F0BC01F0FF0102F0070293
:1002500032B110F8013B013A83EA010313B1F8D13E
:100260000020704701387047002D06BF354603381F
:10027000073815F0010F07D1013015F4807F02BF58
:10028000013015F4C03F0130F0BC0138704700BFA9
:1002900053B94AB9002908BF00281CBF4FF0FF31ED
:1002A0004FF0FF3000F00CB8ADF1080C6DE904CE52
:1002B00003F0E6FADDF804E0DDE9022304B070475C
:1002C000704700BF10B5054C237833B9044B13B108
:1002D0000448AFF300800123237010BD5C000020B0
:1002E000000000003C3B000808B5034B1BB103496C
:1002F0000348AFF3008008BD00000000600000204C
:100300003C3B000810B58CB0002409940A940B946F
:100310002022214601A802F027FE20484FF0A043EA
:1003200003604FF4403343608460C46004614461FF
:1003300004238361047744770123036280F8244017
:10034000C462046380F83840C46380F8404000F021
:1003500079FAC8B90023099309A9104801F0CEF829
:10036000A8B90F4B019306230293002303937F2226
:1003700004920422059206930DEB0201074800F057
:100380005FFC38B90CB010BD00F0A6F8E2E700F051
:10039000A3F8E6E700F0A0F8F4E700BF780000203B
:1003A0000200300410B59CB004460021179118914A
:1003B00019911A911B91542202A802F0D5FD2368CD
:1003C000B3F1A04F01D01CB010BD4FF40043029315
:1003D0004FF00053139302A801F08AFFF0B9114BBC
:1003E000DA6C42F40052DA64DA6C02F400520092E1
:1003F000009ADA6C42F00102DA64DB6C03F001036C
:100400000193019B0123179303231893002319934E
:1004100017A94FF0904001F0D7F9D4E700F05CF84D
:10042000DDE700BF0010024010B58AB0002405943B
:100430000694079408940994254BDA6C42F0040260
:10044000DA64DA6C02F004020192019ADA6C42F08A
:100450002002DA64DA6C02F020020292029ADA6C6C
:1004600042F00102DA64DA6C02F001020392039AAC
:10047000DA6C42F00202DA64DB6C03F002030493EC
:10048000049B224620214FF0904001F087FA4FF460
:10049000005305934FF488130693079405A90D485C
:1004A00001F092F920230593012306930794089401
:1004B00005A94FF0904001F087F9224621462820F7
:1004C00001F05AF9282001F067F90AB010BD00BF09
:1004D000001002400008004872B6FEE700B595B073
:1004E0003822002106A802F03FFD00200190029072
:1004F00003900490059001F065FA022306934FF4EF
:100500008072099240220A920D930E9304220F9258
:100510005522109211931293139306A801F00CFB2D
:1005200080B90F23019303230293002303930493C1
:10053000059304210DEB010001F0B4FD20B915B0C5
:100540005DF804FBFFF7C8FFFFF7C6FF30B591B0B9
:1005500000F028F9FFF7C2FFFFF766FF00F084F80C
:10056000FFF7D0FE0F4D284600F0C2FE642128465A
:1005700000F0B6FA284600F05FFB0446284600F07B
:100580009BFF22460849684602F0CEFC04B9FEE70C
:100590006846FFF725FE642382B26946034802F0ED
:1005A00007FBF4E778000020543B0008E800002037
:1005B00000B583B00B4B1A6E42F001021A661A6E38
:1005C00002F001020092009A9A6D42F080529A6500
:1005D0009B6D03F080530193019B01F079FA03B006
:1005E0005DF804FB00100240FEE7FEE7FEE7FEE7D1
:1005F000FEE770477047704708B500F0E3F808BDA4
:1006000008B54FF4005001F0CFF908BD10B503460E
:100610000C4A0D490D48006840B10C48006803447D
:10062000521A934206D8094A136010BD0748084C75
:100630000460F2E702F0A0FC0C2303604FF0FF30EF
:10064000F3E700BF0000022000040000E4000020E7
:10065000C8020020034AD2F8883043F47003C2F87D
:100660008830704700ED00E008B51748174B03606D
:100670004FF4E133436000238360C36003610C22C5
:100680004261836103624362836202F05FFB70B97F
:1006900000210D4802F0D3FB60B900210A4802F0A6
:1006A000F3FB50B9084802F0ABFB48B908BDFFF7AF
:1006B00013FFEDE7FFF710FFEFE7FFF70DFFF1E79F
:1006C000FFF70AFFF2E700BFE800002000800040CB
:1006D00010B59CB0044600211791189119911A91F8
:1006E0001B91542202A802F03FFC2268174B9A4249
:1006F00001D01CB010BD2023029302A801F0F8FD28
:1007000000BB134BDA6D42F00102DA65DA6D02F0DC
:1007100001020092009ADA6C42F00102DA64DB6CAA
:1007200003F001030193019B0C23179302221892FB
:10073000002219921A921B9317A94FF0904001F0D2
:1007400043F8D6E7FFF7C8FEDBE700BF00800040B4
:1007500000100240104B1B680BB90120704710B508
:1007600004464FF47A70B0FBF3F30C4A1068B0FB08
:10077000F3F001F015F868B90F2C01D901200AE057
:10078000002221464FF0FF3000F0F6FF044B1C60C2
:10079000002000E0012010BD040000200000002027
:1007A0000800002010B5032000F0D4FF0020FFF760
:1007B000D1FF10B10124204610BD0446FFF7F8FE1A
:1007C000F9E70000034A1368034909680B44136002
:1007D000704700BF7C01002004000020014B186816
:1007E000704700BF7C01002010B430300B0A9B0022
:1007F00003F00C03C45801F01F014FF01F0C0CFA5A
:1008000001FC24EA0C0CC2F384628A404CEA020226
:10081000C2505DF8044B704710B414304B0E9B006F
:1008200003F00403C458C1F304514FF0070C0CFA51
:1008300001FC24EA0C0C8A404CEA0202C2505DF82A
:10084000044B704730B583B000230193002800F0BB
:1008500032810446C36D13B323689A6812F0005FB7
:1008600005D09A6822F0204222F03F029A60226866
:10087000936813F0805F1FD1936823F0104323F037
:100880003F0343F0805393608C4B1B689B098C4A59
:10089000A2FB03239B0901335B00019309E0FFF7EF
:1008A00081FD0023236684F85830D5E7019B013B86
:1008B0000193019B002BF9D12268936813F0805FAC
:1008C0003DD1E36D43F01003E365236E43F0010374
:1008D00023660120936813F0040300D00123E16D27
:1008E00011F0100F40F0E080002B40F0DD80E36D50
:1008F00023F4817343F00203E365936813F0010F5F
:100900003ED1B2F1A04F1CD06E4B9A4219D06E4B23
:10091000996811F0010100D001216C4B9B6813F024
:10092000010300D001230B436949896811F00101DB
:1009300000D001210B430CBF0123002312E0002053
:10094000C8E74FF0A043996811F0010100D00121E0
:100950005C4B9B6813F0010300D001230B430CBFD9
:100960000123002363B1B2F1A04F6CD0554B9A42E2
:1009700067D0584963688A6822F47C1213438B60FD
:10098000627FE36B43EA4233E2681343A268134396
:1009900094F8242043EA0243012A56D0E26A22B1A5
:1009A00002F47872216B0A4313432168CD684A4AE6
:1009B0002A401A43CA602268136923F04063616BBE
:1009C0000B4313612268936813F0080300D00123DE
:1009D00043BB237F94F83810490041EA8331D36840
:1009E00023F4804323F002030B43D3602369002BDD
:1009F00030D02268136943F4803313612268D2F83F
:100A0000C03023F47F5323F03F0321690B43C2F826
:100A1000C03094F84030012B2BD02268136923F0AA
:100A2000010313616369012B35D02268136B23F036
:100A30000F031363E36D23F0030343F00103E36546
:100A400037E0264996E7254994E7A26A013A43EA46
:100A50004243A3E72268136923F4803313612268B9
:100A6000D2F8C03023F47F5323F03F03C2F8C030E4
:100A7000CFE721680B6923F4FF6323F00403626C62
:100A8000A56C2A43E56C2A43256D2A43134343F0A2
:100A900001030B61C6E721680B6B23F00F03226A89
:100AA000013A13430B63C5E7E36D43F01003E365BD
:100AB000012003B030BD0120FBE700BF0000002093
:100AC000632D3E0500010050000400500005005059
:100AD00000060050000700500740F0FF00030050E0
:100AE0002DE9F04104460E460368B3F1A04F21D032
:100AF0004E4A93421BD04E4A976807F01F07A569DC
:100B0000082D1ED0092F05D840F22122FA4012F0FC
:100B1000010F11D1B3F1A04F3AD0444A934235D0DE
:100B2000434B9B6813F4604F34D1042509E002F570
:100B30000072E1E73F4ADFE7DB6813F0010F1FD1E6
:100B40000425FFF74BFE804623681A682A4227D106
:100B5000B6F1FF3FF8D0FFF741FEA0EB0800B0422E
:100B600001D8002EF0D123681B682B42ECD1E36D35
:100B700043F00403E365002384F85830032050E079
:100B8000E36D43F02003E36501204AE0294BC8E709
:100B9000284BC6E7E36D43F02003E365012040E006
:100BA000E26D42F40072E265DA6812F4406F11D12E
:100BB000627F7AB91A6812F0080F0BD0E26D22F446
:100BC0008072E265E26D12F4805F03D1E26D42F063
:100BD0000102E265154A934213D002F58062934206
:100BE0000CD01A4693420FD0092F05D840F221218C
:100BF000F94011F0010F07D1D26806E0A2F580722A
:100C0000F0E74FF0A042EDE7DA68082D06D012F4C5
:100C1000804F08D10C221A60002002E008221A60DE
:100C20000020BDE8F0810020FBE700BF000100507C
:100C300000070050000300500368186C7047000064
:100C4000F0B583B00023019390F85830012B00F0E9
:100C5000428204460D46012380F8583000688368BC
:100C600013F0040F09D0E36D43F02003E365012086
:100C7000002384F8583003B0F0BD0A684968FFF7D4
:100C8000B3FD2068836813F0040300D00123866855
:100C900016F0080600D00126002B3ED1002E3CD1D4
:100CA000AA68B2F1004F78D02968FFF7B5FD226835
:100CB000536923F00043536169692268D368C3F321
:100CC000C1035B0099402869042873D0603252F850
:100CD0002070AB4B3B402F6807F0F84C41EA0C0109
:100CE0000B4343F0004342F8203023682869AA6987
:100CF000603353F8201021F080710A4343F820201C
:100D0000236829692A7F012A51D0603353F82120B2
:100D100022F00072324343F821202268936813F0D6
:100D2000010F16D12B68E868D2F8B010C3F3120691
:100D300021EA060100F018069248F0400340C3F390
:100D400012030B43C2F8B030EA688F4B9A4200F0AE
:100D500099802B688D4A134200F0B7812268B2F166
:100D6000A04F00F050818A498A4200F049818949A8
:100D7000896801F0E070884DAB4200F04681874DF4
:100D8000AB4200F04281864DAB4200F07181854D4F
:100D9000AB4200F0858100206AE700222968FFF756
:100DA0003BFD2268536943F00043536184E74FF0F1
:100DB0000076AAE7136E116EC1F384612B68C3F34A
:100DC000120080BBC3F38463994234D021684B6E18
:100DD0004A6EC2F384622B68C3F3120080BBC3F374
:100DE00084639A4234D021688B6E8A6EC2F3846227
:100DF0002B68C3F3120080BBC3F384639A4234D0E0
:100E00002168CB6ECA6EC2F384622B68C3F31200F2
:100E100080BBC3F384639A427FF47FAFCB6E23F031
:100E20000043CB6679E793FAA3F313B1B3FA83F3E4
:100E3000CAE72023C8E7136E23F000431366C5E713
:100E400093FAA3F313B1B3FA83F3CAE72023C8E7F5
:100E50004B6E23F000434B66C5E793FAA3F313B13F
:100E6000B3FA83F3CAE72023C8E78B6E23F000436D
:100E70008B66C5E793FAA3F313B1B3FA83F3CAE71A
:100E80002023C8E720682B68C3F3120626BB9A0EFE
:100E9000013202F01F02092A8CBF00220122002A1F
:100EA00052D046BB990E0131890601F0F84176BB5C
:100EB0009F0E013707F01F070122BA401143AEBB56
:100EC0009B0E013303F01F0303EB43031B05194380
:100ED000AA68FFF7A1FC3CE793FAA3F24AB1B2FA81
:100EE00082F2013202F01F02092A8CBF0022012285
:100EF000D5E72022F5E793FAA3F131B1B1FA81F1F8
:100F00000131890601F0F841D1E72021F8E793FA91
:100F1000A3F24AB1B2FA82F2013202F01F024FF09C
:100F2000010C0CFA02F2C9E72022F5E793FAA3F3C9
:100F300043B1B3FA83F3013303F01F0303EB43031D
:100F40001B05C4E72023F6E776BB990E013189061D
:100F500001F0F841A6BB9F0E013707F01F070122E1
:100F6000BA401143DEBB9B0E013303F01F0303EBBA
:100F700043031E3B1B0543F000731943A8E700BF62
:100F800000F0FF03FFFF070000007F400000088023
:100F90000001005000070050000021C31000C09065
:100FA000000052C7000084CB93FAA3F131B1B1FA2B
:100FB00081F10131890601F0F841CBE72021F8E702
:100FC00093FAA3F24AB1B2FA82F2013202F01F029E
:100FD0004FF0010C0CFA02F2C3E72022F5E793FA76
:100FE000A3F35BB1B3FA83F3013303F01F0303EB05
:100FF00043031E3B1B0543F00073BEE72023F3E7CA
:1010000001F50071B4E63549B2E611F4000F7FF442
:10101000BAAEB2F1A04F04D0314B9A4201D00020B9
:1010200026E6B2F1A04F19D02E4B9A4214D02E4A88
:1010300040F40000936823F0E073184390602B4B5A
:101040001B689B092A4AA2FB03239B09013303EB7C
:1010500043039B00019306E0204AE9E71F4AE7E7C4
:10106000019B013B0193019B002BF9D10020FFE57F
:1010700011F0807F7FF48BAEB2F1A04F0ED0194BF0
:101080009A4209D0184A40F08070936823F0E073C8
:10109000184390600020EBE5104AF4E70F4AF2E7AE
:1010A00011F4800F13D10F4B9A4212D0B2F1A04F1E
:1010B00009D00D4940F480038A6822F0E07213439E
:1010C0008B600020D4E50549F4E70020D0E500203E
:1010D000CEE50020CCE50220CDE500BF00030050A6
:1010E00000060050000100500007005000000020E2
:1010F000632D3E0570B5044603689A6812F0040239
:1011000000D00122986810F0080000D001200AB930
:1011100000286DD0DA6812F0007F04D0A08B40F276
:10112000011290424ED0022912D023689A6812F020
:10113000040F0BD09A6812F0020F07D19A6822F0C0
:10114000004222F03F0242F010029A60012947D08B
:1011500023689A6812F0080F0BD09A6812F0020FF9
:1011600007D19A6822F0004222F03F0242F02002AA
:101170009A60022936D0032936D10C25FFF72EFBC1
:10118000064623689B682B4230D0FFF727FB801B65
:101190000528F6D923689B682B42F2D0E36D43F013
:1011A0001003E365236E43F00103236601201EE074
:1011B000E36D43F01003E365236E43F00103236600
:1011C000012014E00022196811F0400F04D10949F0
:1011D0008A42EDD80132F6E740221A600121A4E7E5
:1011E0000425CBE70825C9E70425C7E7002070BD23
:1011F0000020FCE7FFFF3FA330B583B0002301933D
:1012000003689A6812F0010F63D104469968324A64
:10121000114220D19A6822F0004222F03F0242F0AF
:1012200001029A600368B3F1A04F20D02B4A934289
:101230001BD02B4B9B6813F4000F20D0294B1B684D
:101240009B09294AA2FB03239B09013303EB4303B8
:101250009B00019310E0C36D43F01003C365036E60
:1012600043F001030366012034E0204BE2E71F4B0B
:10127000E0E7019B013B0193019B002BF9D1FFF7B4
:10128000ADFA054623681A6812F0010F1FD19A685B
:1012900012F0010F07D19A6822F0004222F03F02BB
:1012A00042F001029A60FFF799FA431B022BE9D939
:1012B00023681B6813F0010FE4D1E36D43F01003C2
:1012C000E365236E43F001032366012002E0002062
:1012D00000E0002003B030BD3F000080000100505E
:1012E0000007005000000020632D3E050003005061
:1012F00038B504460368B3F1A04F60D0464A934224
:101300005AD0464A956805F01F059B6813F0040FF4
:101310007DD194F85830012B7BD0012384F85830CC
:101320002046FFF769FF00286DD1E36D23F4706359
:1013300023F0010343F48073E3652368364A934244
:1013400042D002F5806293423BD01A46934200D0CD
:101350001DB9E26D22F48012E265E26D12F4805F45
:1013600035D0226E22F0060222661C221A6000236B
:1013700084F858302368284A93422ED002F58062C0
:10138000934227D01A4693422AD0092D05D840F21D
:101390002121E94011F0010F22D1E36D43F48013C4
:1013A000E365D36813F0007F32D0E36D23F440533C
:1013B00043F48053E3652BE002F50072A2E7184A7C
:1013C000A0E7A2F58072C1E74FF0A042BEE700227D
:1013D0002266CAE7A2F58072D5E74FF0A042D2E7B5
:1013E000DA6812F0007F05D0E26D22F4405242F438
:1013F0008052E2659A6822F0004222F03F0242F0F9
:1014000004029A6004E0002384F8583000E00220CF
:1014100038BD0220FCE700BF00010050000700506B
:101420000003005038B504460268936813F00203C5
:1014300000D00123916811F0010F39D0002B39D170
:10144000936803F00D03012B09D0E36D43F0100303
:10145000E365236E43F001032366012029E09368CE
:1014600023F0004323F03F0343F00203936023681B
:1014700003221A60FFF7B2F9054623689B6813F050
:10148000010F13D0FFF7AAF9401B0228F5D92368F2
:101490009B6813F0010FF0D0E36D43F01003E36598
:1014A000236E43F001032366012002E0002000E0E8
:1014B000002038BD0020FCE790F85830012B1AD0EE
:1014C00010B50446012380F858300321FFF712FEBF
:1014D00018B1002384F8583010BD2046FFF7A2FF52
:1014E0000028F6D1E36D23F4885323F0010343F081
:1014F0000103E365EDE702207047000090F85820F3
:10150000012A00F0D68010B49DB00346012280F875
:1015100058200022189219920068B0F1A04F47D0CD
:10152000654A904247D000220192019A002A46D093
:10153000926812F0040200D00122846814F0040FB3
:1015400040F0A780002A40F0A480B0F1A04F42D024
:101550005A4A90423CD05A4A086800285CD09068A9
:1015600020F460404C6893F838C044EA4C3420437F
:1015700090601868B0F1A04F2FD0504CA0422CD0F2
:101580004D48846814F0010400D001244D4880685F
:1015900010F0010000D0012020434B4CA46814F04F
:1015A000010400D0012420430CBF0120002025E0CD
:1015B000424A0192B9E702F580720192B5E7DA6D0D
:1015C00042F02002DA65002283F85820012068E00A
:1015D00002F50072C0E73D4ABEE74FF0A0408468C4
:1015E00014F0010400D001243448806810F0010098
:1015F00000D0012020430CBF01200020002854D03F
:10160000906820F4716020F00F000C688968214315
:1016100008439060002041E0916821F460419160AE
:101620001968B1F1A04F1AD02448814217D022493D
:10163000886810F0010000D001202249896811F06B
:10164000010100D0012101431F48806810F0010012
:1016500000D0012001430CBF0121002110E04FF018
:10166000A041886810F0010000D00120134989686A
:1016700011F0010100D0012101430CBF0121002123
:10168000A9B1916821F4716121F00F0191600020EE
:1016900004E0DA6D42F02002DA650120002283F8CE
:1016A00058201DB05DF8044B70470020F6E700207D
:1016B000F4E70220704700BF000400500001005012
:1016C00000070050000500500006005000030050C5
:1016D000002807DB00F01F02400901239340024A63
:1016E00042F82030704700BF00E100E0002808DB2E
:1016F0000901C9B200F1604000F5614080F80013B3
:10170000704700F00F000901C9B2014B195470472E
:1017100014ED00E000B500F00700C0F1070CBCF1CB
:10172000040F28BF4FF0040C031D062B0FD9C31E56
:101730004FF0FF3E0EFA0CF021EA000199400EFA3C
:1017400003FE22EA0E0241EA02005DF804FB0023D8
:10175000EEE70000074AD36823F4E0631B041B0C88
:10176000000200F4E060034343F0BF6343F400333E
:10177000D360704700ED00E010B50446054BD86813
:10178000C0F30220FFF7C6FF01462046FFF7AEFF79
:1017900010BD00BF00ED00E008B5FFF799FF08BDE0
:1017A0000138B0F1807F0BD24FF0E0235861054A39
:1017B000F02182F823100020986107221A617047F7
:1017C0000120704700ED00E0F0B583B0002362E037
:1017D00085685E000324B44025EA0405CC68B44063
:1017E0002C438460456825EA0C054C68C4F300145A
:1017F0009C402C4344605FE0DD08083550F82540EC
:1018000003F0070C4FEA8C0C4FF00F0E0EFA0CFE93
:1018100024EA0E0E0C6904FA0CF444EA0E0440F8B3
:10182000254060E0052400E0002404FA0EF42C4377
:101830000CF1020C554D45F82C40554CA568D4438D
:1018400025EA02064F6817F4801F01D042EA050618
:101850004F4DAE60ED6804EA05064F6817F4001FAF
:1018600001D042EA05064A4DEE606D6804EA0506BD
:101870004F6817F4003F01D042EA0506444D6E6000
:101880002D682C404E6816F4803F01D042EA0504D2
:101890003F4A146001330A6832FA03F474D04FF0FF
:1018A000010C0CFA03FC1CEA0202F3D04C6804F0B1
:1018B0000304013C012C8BD94C6804F00304032C75
:1018C0000CD0C4685D004FF0030C0CFA05FC24EA50
:1018D0000C0C8C68AC4044EA0C04C4604C6804F006
:1018E0000304022C88D004684FEA430E4FF0030C27
:1018F0000CFA0EFC24EA0C0C4C6804F0030404FA05
:101900000EF444EA0C0404604C6814F4403FC1D067
:10191000204C256E45F001052566246E04F0010477
:101920000194019C4FEA930C0CF10205174C54F8FA
:10193000255003F0030E4FEA8E0E0F2404FA0EF426
:1019400025EA0405B0F1904F3FF46EAF124CA0426F
:1019500012D004F58064A04210D004F58064A04247
:101960000ED004F58064A0420CD004F58064A0423F
:101970003FF458AF062458E7012456E7022454E701
:10198000032452E7042450E703B0F0BD00000140F7
:101990000004014000100240000400480AB18161C7
:1019A000704781627047704708B5054B5B69034219
:1019B00000D108BD024B5861FFF7F5FFF9E700BF02
:1019C00000040140002836D13E4B1B6803F4C0637D
:1019D000B3F5806F08D03B4AD2F8803023F480738F
:1019E000C2F8803000207047364AD2F8803023F4A5
:1019F0008073C2F88030136823F4C06343F400732B
:101A00001360314B1B68322202FB03F32F4AA2FB07
:101A100003239B0C013300E0013B2A4A526912F474
:101A2000806F01D0002BF7D1264B5B6913F4806FD8
:101A300044D100207047B0F5007F08D0214A1368D8
:101A400023F4C06343F480631360002070471D4B90
:101A50001B6803F4C063B3F5806F08D0194AD2F84D
:101A6000803043F48073C2F8803000207047154AFC
:101A7000D2F8803043F48073C2F88030136823F4C6
:101A8000C06343F4007313600F4B1B68322202FBE8
:101A900003F30E4AA2FB03239B0C013300E0013B3E
:101AA000084A526912F4806F01D0002BF7D1054B20
:101AB0005B6913F4806F03D10020704703207047E7
:101AC00003207047007000400000002083DE1B43AD
:101AD000024A936843F4804393607047007000406B
:101AE000124BDA6802F00302DB68C3F3031301331D
:101AF000032A11D00E48B0FBF3F00C4BDB68C3F3A4
:101B0000062303FB00F0094BDB68C3F34163013399
:101B10005B00B0FBF3F070470648B0FBF3F0034BFB
:101B2000DB68C3F3062303FB00F0ECE70010024080
:101B30000024F40000366E01002800F04F8270B5DA
:101B400082B00446036813F0010F37D0A44A9368AB
:101B500003F00C03D26802F003020C2B23D0082BF5
:101B600023D06368B3F5803F4ED0B3F5A02F51D09A
:101B70009B4B1A6822F480321A601A6822F4802281
:101B80001A606368002B52D0FEF728FE0546944B7E
:101B90001B6813F4003F11D1FEF720FE401B6428A0
:101BA000F5D9032023E2032AD9D18D4B1B6813F406
:101BB000003F03D06368002B00F01282236813F00B
:101BC000020F5DD0864A936803F00C03D26802F0DE
:101BD00003020C2B3AD0042B3AD0E368002B75D0CB
:101BE0007F4A136843F480731360FEF7F7FD0546E0
:101BF0007B4B1B6813F4806F5FD1FEF7EFFD401B3A
:101C00000228F5D90320F2E1754A136843F48033C2
:101C10001360B6E703F18043A3F53C331A6842F43E
:101C200080221A601A6842F480321A60A9E7FEF72F
:101C3000D5FD05466A4B1B6813F4003FBED0FEF786
:101C4000CDFD401B6428F5D90320D0E1022AC2D182
:101C5000634B1B6813F4806F03D0E368002B00F024
:101C6000C1815F4A536823F0FE43216943EA01635F
:101C700053605C4B1868FEF76DFD002840F0B4819E
:101C8000236813F0080F4CD063699BB3544AD2F811
:101C9000943043F00103C2F89430FEF79FFD0546EF
:101CA0004F4BD3F8943013F0020F3AD1FEF796FD64
:101CB000401B0228F4D9032099E1494A536823F0D4
:101CC000FE43216943EA01635360D9E7444A13683C
:101CD00023F480731360FEF781FD0546404B1B68BB
:101CE00013F4806FCCD0FEF779FD401B0228F5D9A4
:101CF00003207CE13A4AD2F8943023F00103C2F881
:101D00009430FEF76BFD0546354BD3F8943013F055
:101D1000020F06D0FEF762FD401B0228F4D9032013
:101D200065E1236813F0040F00F081802C4B9B6D5C
:101D300013F0805F36D12A4B9A6D42F080529A653B
:101D40009B6D03F080530193019B0125264B1B687B
:101D500013F4807F28D0A368012B39D0052B45D000
:101D60001F4BD3F8902022F00102C3F89020D3F843
:101D7000902022F00402C3F89020A368002B43D0E7
:101D8000FEF72CFD0646164BD3F8903013F0020FE9
:101D90004CD1FEF723FD801B41F288339842F2D9E3
:101DA000032024E10025D1E70F4A136843F4807330
:101DB0001360FEF713FD06460B4B1B6813F4807F80
:101DC000C9D1FEF70BFD801B0228F5D903200EE1D7
:101DD000034AD2F8903043F00103C2F89030CCE7C8
:101DE000001002400800002000700040884BD3F82B
:101DF000902042F00402C3F89020D3F8902042F0E3
:101E00000102C3F89020B8E7FEF7E8FC0646804BD5
:101E1000D3F8903013F0020F08D0FEF7DFFC801BE0
:101E200041F288339842F2D90320E0E0E5B9236813
:101E300013F0200F35D0A369E3B1754AD2F898307A
:101E400043F00103C2F89830FEF7C8FC0546704B1A
:101E5000D3F8983013F0020F23D1FEF7BFFC401BDC
:101E60000228F4D90320C2E0694A936D23F080531D
:101E70009365DCE7664AD2F8983023F00103C2F894
:101E80009830FEF7ABFC0546614BD3F8983013F061
:101E9000020F06D0FEF7A2FC401B0228F4D9032053
:101EA000A5E0E369002B00F0A180594A926802F096
:101EB0000C020C2A64D0022B13D0554A136823F06D
:101EC00080731360FEF78AFC0446514B1B6813F0C5
:101ED000007F4ED0FEF782FC001B0228F5D90320BC
:101EE00085E04B4A136823F080731360FEF776FC9D
:101EF0000546474B1B6813F0007F06D0FEF76EFCCB
:101F0000401B0228F5D9032071E0414AD3684149BA
:101F10001940236A606A013843EA0013A06A43EA61
:101F20000023206B4008013843EA4053606B4008AF
:101F3000013843EA4063E06A43EAC0631943D16071
:101F4000136843F080731360D36843F08073D360E9
:101F5000FEF744FC04462E4B1B6813F0007F06D1AD
:101F6000FEF73CFC001B0228F5D903203FE00020CF
:101F70003DE0274AD168284B0B40D360002036E073
:101F8000012B36D0224BDB6803F00301226A914219
:101F900031D103F0F002616A0139B2EB011F2CD19B
:101FA00003F4FE42A16AB2EB012F28D103F078427C
:101FB000E16AB2EBC16F24D103F4C001226B520875
:101FC000013AB1EB425F1ED103F0C063626B52086D
:101FD000013AB3EB426F18D1002008E001207047AE
:101FE000012004E0012002E0012000E0002002B016
:101FF00070BD0120FBE70120F9E70120F7E7012090
:10200000F5E70120F3E70120F1E70120EFE700BF4A
:10201000001002400C809F01FCFFEEFE1E4B9B68EF
:1020200003F00C03042B33D01B4B9B6803F00C0311
:10203000082B2FD0184B9B6803F00C030C2B01D0FE
:1020400000207047144BDA6802F00302DB68C3F328
:1020500003130133032A11D01048B0FBF3F00E4BE9
:10206000DB68C3F3062303FB00F00B4BDB68C3F311
:10207000416301335B00B0FBF3F070470848B0FBED
:10208000F3F0054BDB68C3F3062303FB00F0ECE73A
:102090000248704702487047001002400024F400D4
:1020A00000366E01002800F0E680F8B50C460546C3
:1020B000744B1B6803F00F038B420BD2714A1368F9
:1020C00023F00F030B431360136803F00F038B42DD
:1020D00040F0D3802E6816F001065FD06B68032BAA
:1020E0002FD0022B4DD0684B1B6813F4806F00F08B
:1020F000C680FFF793FF654B98424DD9624A9368BB
:1021000023F0F00343F08003936080265E4A9368D7
:1021100023F0030369680B439360FEF75FFB0746F8
:10212000594B9B6803F00C036A68B3EB820F35D000
:10213000FEF754FBC01B41F288339842F0D90320CC
:1021400078E0514B1B6813F0007F01D1012071E052
:10215000FFF7C6FC4D4B98421AD94B4B9B6813F0C6
:10216000F00F05D02E6816F00206CFD0AB688BB901
:10217000454A936823F0F00343F080039360802680
:10218000C4E7414B1B6813F4003FB2D1012051E07A
:102190000026BBE70026B9E70026B7E72B6813F057
:1021A000020F48D013F0040F04D0374A936843F469
:1021B000E06393602B6813F0080F06D0324A9368EF
:1021C00023F47C5343F4E06393602F4A936823F035
:1021D000F003A9680B4393602A4B1B6803F00F03BD
:1021E000A34230D82B6813F0040F06D0264A936818
:1021F00023F4E063E9680B4393602B6813F0080F46
:1022000007D0214A936823F46053296943EAC10344
:102210009360FFF703FF1C4B9B68C3F303131C4A37
:10222000D35C03F01F03D8401A4B18601A4B186890
:10223000FEF790FAF8BD802ECED1134A936823F0B2
:10224000F0039360C8E70F4A136823F00F0323439A
:102250001360FEF7C3FA06460A4B1B6803F00F0330
:10226000A342BFD0FEF7BAFA801B41F288339842EE
:10227000F2D90320DEE7012070470120DAE70120D0
:10228000D8E700BF002002400010024000B4C404A0
:10229000683B00080000002008000020014B18687F
:1022A000704700BF0000002008B5FFF7F7FF054B9F
:1022B0009B68C3F30223044AD35C03F01F03D84096
:1022C00008BD00BF00100240603B000808B5FFF7E2
:1022D000E5FF054B9B68C3F3C223044AD35C03F0BC
:1022E0001F03D84008BD00BF00100240603B00083B
:1022F000F0B583B00446036813F4002F6ED0354B5D
:102300009B6D13F0805F1ED1324B9A6D42F080526C
:102310009A659B6D03F080530193019B01262E4A21
:10232000136843F480731360FEF758FA05462A4B8E
:102330001B6813F4807F08D1FEF750FA401B022877
:10234000F5D9032502E00026E9E7002545BB214B2E
:10235000D3F8903013F4407315D0226D9A4212D006
:102360001C4AD2F8903023F44073D2F8901041F414
:102370008031C2F89010D2F8901021F48031C2F868
:102380009010C2F8903013F0010F10D145B9114AE6
:10239000D2F8903023F44073216D0B43C2F8903093
:1023A000EEB10C4A936D23F08053936517E0FEF76E
:1023B00015FA0746074BD3F8903013F0020FE5D11A
:1023C000FEF70CFAC01B41F288339842F2D903257C
:1023D000DCE700BF001002400070004000252368C9
:1023E00013F0010F08D09F4AD2F8883023F003037E
:1023F00061680B43C2F88830236813F0020F08D0DD
:10240000984AD2F8883023F00C03A1680B43C2F835
:102410008830236813F0040F08D0924AD2F888302D
:1024200023F03003E1680B43C2F88830236813F0CF
:10243000080F08D08B4AD2F8883023F0C0032169F6
:102440000B43C2F88830236813F0100F08D0854A78
:10245000D2F8883023F4407361690B43C2F88830A6
:10246000236813F0200F08D07E4AD2F8883023F476
:102470004063A1690B43C2F88830236813F0400F12
:1024800008D0784AD2F8883023F44053E1690B43EE
:10249000C2F88830236813F0800F08D0714AD2F850
:1024A000883023F44043216A0B43C2F88830236804
:1024B00013F4807F08D06B4AD2F8883023F440337D
:1024C000616A0B43C2F88830236813F4003F08D0D8
:1024D000644AD2F89C3023F00303A16A0B43C2F88C
:1024E0009C30236813F4007F08D05E4AD2F888300D
:1024F00023F44023E16A0B43C2F88830236813F4C5
:10250000806F0CD0574AD2F8883023F44013216BE7
:102510000B43C2F88830236BB3F5801F79D0236852
:1025200013F4006F0CD04F4AD2F8883023F44003E4
:10253000616B0B43C2F88830636BB3F5800F6DD0CD
:10254000236813F4805F0CD0464AD2F8883023F019
:102550004073A16B0B43C2F88830A36BB3F1807F4B
:1025600061D0236813F4005F0CD03E4AD2F8883063
:1025700023F04063E16B0B43C2F88830E36BB3F1A7
:10258000006F55D0236813F4804F0CD0354AD2F831
:10259000883023F04063216C0B43C2F88830236CF1
:1025A000B3F1006F49D0236813F4004F0CD02D4ACB
:1025B000D2F8883023F04053616C0B43C2F8883066
:1025C000636CB3F1805F3DD0236813F4803F0CD07F
:1025D000244AD2F8883023F04043A16C0B43C2F860
:1025E0008830A36CB3F1804F31D0236813F4802F6F
:1025F0000CD01C4AD2F89C3023F44013E16C0B43FE
:10260000C2F89C30E36CB3F5001F25D0284603B018
:10261000F0BDD36843F48013D36080E7D36843F4FC
:102620008013D3608CE7D36843F48013D36098E7BA
:10263000D36843F48013D360A4E7D36843F48013D2
:10264000D360B0E7D36843F48033D360BCE7D3688A
:1026500043F48033D360C8E7D36843F48013D36076
:10266000D4E700BF00100240026852E8003F23F4A4
:10267000907342E800310029F6D1026802F10803A4
:1026800053E8003F23F0805323F00103083242E86F
:1026900000310029F1D1C36E012B06D02023C0F8F0
:1026A0008C300023C36643677047026852E8003FDE
:1026B00023F0100342E800310029F6D1EEE70000D4
:1026C00070B5044601688368026913434269134385
:1026D000C26913430868964A02401A430A60226896
:1026E000536823F44053E1680B435360A1692268A7
:1026F000904B9A4201D0236A1943936823F06E43AA
:1027000023F430630B4393602268D36A23F00F03F2
:10271000616A0B43D3622368874A934210D0874A89
:10272000934221D0864A934237D0864A93425CD066
:10273000854A93426BD07F4A93427DD010223AE083
:1027400002F55842D2F8882002F00302032A09D881
:10275000DFE802F00204870601222CE004222AE0CE
:10276000082228E0102226E002F5E632D2F888207E
:1027700002F00C020C2A0ED8DFE802F0070D0D0D56
:10278000090D0D0D750D0D0D0B00002213E0042237
:1027900011E008220FE010220DE002F5E432D2F839
:1027A000882002F03002202A5FD01AD8002A5ED09A
:1027B000102A5ED104225F498B4276D0E069B0F5E1
:1027C000004F00F0C980082A00F23481DFE812F0DF
:1027D000F7001901F50032011C013201320132010A
:1027E0001F01302A47D10822E5E702F5E232D2F88C
:1027F000882002F0C002802A3FD004D8FAB3402AD1
:102800003FD10422D7E7C02A3DD10822D3E702F501
:10281000E032D2F8882002F44072B2F5007F34D062
:1028200005D8A2B3B2F5807F33D10422C3E7B2F555
:10283000407F30D10822BEE702F5C832D2F88820A6
:1028400002F44062B2F5006F27D005D83AB3B2F572
:10285000806F26D10422AEE7B2F5406F23D1082263
:10286000A9E70222A7E70222A5E70222A3E70022A6
:10287000A1E710229FE710229DE702229BE700229A
:1028800099E7102297E7102295E7022293E70022AA
:1028900091E710228FE710228DE702228BE70022BA
:1028A00089E7102287E7102285E7082A00F2B28024
:1028B000DFE802F008B03BB038B0B0B005004FF42C
:1028C000004004E0FFF7F0FC002800F0A580626AF9
:1028D0001E4B33F81220B0FBF2F3656805EB45019F
:1028E000994200F29B80B3EB053F00F299800026ED
:1028F00033463146FDF7CCFC090241EA1061000283
:102900006B08C0182A46334641F10001FDF7C0FCB0
:10291000A0F540720E4B9A4200F284802368D86082
:10292000304665E0FFF77AFBCEE70A48CFE700BF05
:10293000F369FFCF008000400038014000440040B0
:1029400000480040004C004000500040783B000828
:10295000FFFC0F000024F400082A65D8DFE802F02D
:10296000072705642A6464640B00354803E0FFF719
:102970009BFC00285AD0626A324B33F81230B0FB0D
:10298000F3F06268530803EB4003B3FBF2F3A3F1E7
:1029900010014FF6EF7291424AD89AB222F00F021C
:1029A000C3F3420313432268D360002020E0FFF703
:1029B0008DFCDEE7FFF732FBDBE7214803E0FFF7A2
:1029C00073FC002838D0626A1E4B33F81230B0FB1B
:1029D000F3F0636800EB5300B0FBF3F0A0F11002DA
:1029E0004FF6EF739A4229D8236880B2D86000204E
:1029F0000123A4F86A30A4F8683000236367A36752
:102A000070BDFFF763FCDCE7FFF708FBD9E74FF485
:102A10000040D8E70120EBE70020E9E70120E7E7E5
:102A20000120E5E70120E3E70120E1E70020DFE7FF
:102A30000120DDE70120DBE70020D9E70120D7E70F
:102A40000024F400783B0008836A13F0080F06D0D6
:102A50000268536823F40043816B0B435360836A1D
:102A600013F0010F06D00268536823F40033C16AE3
:102A70000B435360836A13F0020F06D00268536859
:102A800023F48033016B0B435360836A13F0040F0C
:102A900006D00268536823F48023416B0B435360D4
:102AA000836A13F0100F06D00268936823F48053F2
:102AB000C16B0B439360836A13F0200F06D002684A
:102AC000936823F40053016C0B439360836A13F003
:102AD000400F0AD00268536823F48013416C0B4303
:102AE0005360436CB3F5801F0BD0836A13F0800FE3
:102AF00006D00268536823F40023C16C0B43536073
:102B000070470268536823F4C003816C0B43536021
:102B1000EBE72DE9F84305460E4617469946DDF8E2
:102B200020802B68DC6936EA04040CBF01240024F1
:102B3000BC4236D1B8F1FF3FF3D0FDF74FFEA0EB1A
:102B40000900404530D8B8F1000F2FD02B681A6823
:102B500012F0040FE5D0802EE3D0402EE1D0DA69E8
:102B600012F0080F11D1DA6912F4006FD9D04FF4C6
:102B700000621A622846FFF777FD2023C5F89030DF
:102B8000002385F8843003200CE008241C622846CA
:102B9000FFF76AFDC5F89040002385F884300120D6
:102BA00000E00020BDE8F8830320FBE70320F9E7FD
:102BB0002DE9F04182B01E46D0F88830202B5AD142
:102BC00004460D469046002959D00AB9012053E029
:102BD0000023C0F890302123C0F88830FDF7FEFDB7
:102BE0000746A4F85480A4F85680A368B3F5805F24
:102BF00002D04FF0000816E0236943B34FF00008FD
:102C000011E02023C4F88830032035E038F8023B77
:102C10002268C3F308039362B4F8562092B2013AD3
:102C200092B2A4F85620B4F856309BB293B10096F5
:102C30003B46002280212046FFF76BFF0028E0D1B1
:102C4000002DE3D015F8012B23689A62E4E7A8462B
:102C50000025E8E700963B46002240212046FFF78A
:102C600058FF18B92023C4F8883005E02023C4F8A1
:102C70008830032000E0022002B0BDE8F08101208E
:102C8000FAE730B583B004460023C0F89030FDF772
:102C9000A5FD05462268126812F0080F10D12368BE
:102CA0001B6813F0040F28D12023C4F88830C4F81F
:102CB0008C300020E066206784F8840003B030BDCB
:102CC0006FF07E430093034600224FF4001120462C
:102CD000FFF71FFF0028E2D0226852E8003F23F0F0
:102CE000800342E800310029F6D12023C4F888305F
:102CF000002384F884300320E0E76FF07E430093E4
:102D00002B4600224FF480012046FFF702FF0028E7
:102D1000CAD0226852E8003F23F4907342E80031A1
:102D20000029F6D1226802F1080353E8003F23F09E
:102D30000103083242E800310029F3D12023C4F80E
:102D40008C30002384F884300320B7E778B310B5C3
:102D50000446D0F888300BB32423C4F888302268A6
:102D6000136823F001031360A36AE3B92046FFF759
:102D7000A7FC012811D02268536823F490435360C4
:102D80002268936823F02A0393602268136843F053
:102D9000010313602046FFF774FF10BD80F88430F4
:102DA000FDF796FCD8E72046FFF74EFEDEE7012050
:102DB00070470000436E2BB90123A0F86A30A0F8D9
:102DC0006830704730B403689A68C2F34262996809
:102DD000490F094D6B5CDB00084C615C93FBF1F320
:102DE000A0F86A30AB5CDB00A25C93FBF2F3A0F8C6
:102DF000683030BC704700BF983B0008903B00082B
:102E000090F88430012B18D0012380F884302423DB
:102E1000C0F8883003681A68196821F00101196048
:102E200022F000520023436601680A602022C0F8A5
:102E3000882080F88430184670470220704738B5E3
:102E400090F88430012B1DD00446012380F8843093
:102E50002423C0F8883003681D681A6822F0010234
:102E60001A600268936823F0604319439160FFF78A
:102E7000A1FF23681D602023C4F88830002084F857
:102E8000840038BD0220FCE738B590F88430012B6F
:102E90001DD00446012380F884302423C0F88830F4
:102EA00003681D681A6822F001021A6002689368BC
:102EB00023F0606319439160FFF77CFF23681D6076
:102EC0002023C4F88830002084F8840038BD022014
:102ED000FCE700000D488546FDF7BCFB0C480D499A
:102EE0000D4A002302E0D458C4500433C4188C4265
:102EF000F9D30A4A0A4C002301E013600432A242CB
:102F0000FBD300F03FF8FDF721FBFEE700000220B5
:102F1000000000205C000020E43B00085C00002072
:102F2000C8020020FEE700000EB400B59CB01DAB47
:102F3000029006906FF000410948079104910949F9
:102F400053F8042B05910068019302A900F094F94D
:102F5000029B00221A701CB05DF804EB03B07047AE
:102F60000C0000200802FFFF02440346934200D1F8
:102F7000704703F8011BF9E7014B1868704700BF61
:102F80000C00002070B50D4D0D4C641BA4100026E4
:102F9000A64209D10B4D0C4C00F0D0FD641BA410CF
:102FA0000026A64205D170BD55F8043B984701366E
:102FB000EEE755F8043B98470136F2E7DC3B0008A2
:102FC000DC3B0008DC3B0008E03B00087047704732
:102FD00038B50546002941D051F8043C0C1F002BA0
:102FE000B8BFE41800F0E0F81D4A136833B9636015
:102FF00014602846BDE8384000F0DCB8A34208D988
:10300000206821188B4201BF19685B68091821608C
:10301000EDE71A465B680BB1A342FAD91168501864
:10302000A0420BD120680144501883421160E0D1C6
:1030300018685B68536008441060DAE702D90C2313
:103040002B60D6E7206821188B4204BF19685B68A3
:10305000636004BF091821605460CAE738BD00BF2F
:10306000C402002070B50F4E0C463168054611B9F8
:1030700000F0B2FB30602146284600F0ADFB431C57
:1030800003D14FF0FF34204670BDC41C24F003046C
:10309000A042F8D0211A284600F09EFB0130F2D160
:1030A000EFE700BFC00200202DE9F843CD1C25F05A
:1030B000030508350C2D38BF0C25002D064601DB15
:1030C000A94204D90C2333600020BDE8F883DFF85F
:1030D000D48000F069F8D8F800301C4644BB29467B
:1030E0003046FFF7BFFF431C044658D1D8F80040D4
:1030F0002746002F43D1002C4BD023683946304659
:1031000004EB030900F068FB814542D121686D1A88
:1031100029463046FFF7A6FF01303AD023682B44FA
:103120002360D8F800305A6862BBC8F800700FE01E
:103130002268521B20D40B2A17D96119A34225609B
:1031400018BF5960636808BFC8F8001062514B602F
:10315000304600F02FF804F10B00231D20F007008B
:10316000C21A1CBF1B1AA350AFE76268A3420CBF70
:10317000C8F800205A60EBE723466468AEE73C4697
:103180007F68B6E71A465B68A342FBD10023536011
:10319000DEE70C233360304600F00CF894E705605E
:1031A000D6E700BFC40200200148FFF70FBF00BFF1
:1031B000BC0200200148FFF70ABF00BFBC0200208C
:1031C0002DE9F0478E681F46BE420B6882460C46CA
:1031D00090462DD8B1F90C2012F4906F26D0656975
:1031E000096905EB4505A3EB010905EBD5757B1CCA
:1031F0004B446D109D4238BF1D46530527D52946C7
:10320000FFF752FF064660B321694A4600F0F4FA20
:10321000A38923F4906343F08003A3812661656151
:103220004E44A5EB09052660A5603E46BE4200D986
:103230003E4620683246414600F0B4FAA3689B1B24
:10324000A3602368334423600020BDE8F0872A464A
:1032500000F0E0FA06460028E0D121695046FFF769
:10326000B7FE0C23CAF80030A38943F04003A381C2
:103270004FF0FF30E9E700002DE9F04F98468B89C9
:103280001B069DB007460D46144610D50B6973B951
:103290004021FFF709FF2860286130B90C233B600B
:1032A0004FF0FF301DB0BDE8F08F40236B6100236D
:1032B000099320238DF82930CDF80C803023DFF8D6
:1032C0009C818DF82A304FF0010923469A4613F865
:1032D000012B0AB1252AF9D1BAEB040B0BD05B46BE
:1032E000224629463846FFF76BFF013000F0A780E1
:1032F000099A5A4409929AF80030002B00F09F80F6
:1033000000234FF0FF32CDE905230AF1010A0493AF
:1033100007938DF853301A935446052214F8011B75
:103320004E48FCF765FF049AD8B9D00644BF202365
:103330008DF85330110744BF2B238DF853309AF882
:1033400000302A2B15D0079A544600204FF00A0C63
:10335000214611F8013B303B092B4BD9B0B1079204
:1033600014E0A0EB080309FA03F313430493A24605
:10337000D2E7039B191D1B680391002BBBBF5B4267
:1033800042F0020207930793B8BF049223782E2BD2
:103390000AD163782A2B32D1039B1A1D1B68039232
:1033A00043EAE37302340593DFF8C0A021780322D7
:1033B0005046FCF71DFF38B1049BA0EB0A004022E9
:1033C000824013430134049314F8011B24488DF800
:1033D00028100622FCF70CFF002836D0214B1BBB1F
:1033E000039B073323F0070308330393099B3344FC
:1033F00009936AE70CFB02320C460120A8E7002380
:103400000134059319464FF00A0C204610F8012BA1
:10341000303A092A03D9002BC6D00591C4E70CFB2A
:10342000012104460123F0E703AB00932A460E4B2B
:1034300004A93846AFF30080421C0646D6D1AB89BA
:103440005B063FF52DAF09982CE703AB00932A46A6
:10345000054B04A9384600F079F8EDE7A03B0008D9
:10346000AA3B000800000000C1310008A63B00088C
:103470002DE9F047164698468A680B69DDF82090DA
:103480009342B8BF1346336091F8432007460C4679
:103490000AB1013333602368990642BF33680233AF
:1034A0003360256815F0060506D104F1190AE368B2
:1034B00032689B1AAB4226DC94F843302268003B0A
:1034C00018BF012392062BD404F14302414638462B
:1034D000C84701301ED02368226903F00603042B7D
:1034E00002BFE5683368ED1AA3680CBF25EAE575ED
:1034F00000259342C4BF9B1AED1800261A34B5422A
:103500001AD1002008E00123524641463846C847F8
:10351000013003D14FF0FF30BDE8F0870135C6E739
:10352000E1185A1C302081F84300224494F84510D9
:1035300082F843100233C7E701232246414638464A
:10354000C8470130E6D00136D9E700002DE9FF4732
:103550000F7E0C9E782F914680460C469A4601F1CC
:10356000430207D8622F0AD8002F00F0DD80582FC1
:1035700000F0C38004F1420684F842703AE0A7F1FB
:103580006303152BF6D801A151F823F0E5350008A7
:10359000F9350008753500087535000875350008DF
:1035A00075350008F93500087535000875350008CF
:1035B00075350008753500080F3700088736000894
:1035C000C736000875350008753500083137000822
:1035D0007535000887360008753500087535000810
:1035E000CF36000833681A1D1B68326004F14206AA
:1035F00084F842300123A8E031682368081D306058
:103600001E0601D50D6803E05D06FBD5B1F900503B
:103610006168002D78DA2D20002984F84300A1602C
:103620002DDA5E486D420A231646B5FBF3F103FB23
:103630001157C75D06F8017D2F46BB420D46F4D9F0
:10364000082B0BD12368DF0708D5236961689942ED
:10365000DEBF302306F8013C06F1FF36921B2261E3
:10366000CDF800A04B4603AA21464046FFF700FFD5
:1036700001306FD14FF0FF3004B0BDE8F08723F088
:1036800004032360CDE721683368080653F8045B20
:1036900002D4490648BFADB26F2F4048336014BF13
:1036A0000A230823002184F843106668A660002ED0
:1036B000BADB216821F004012160002DB4D1002E75
:1036C000B2D11646BCE7236843F020032360344898
:1036D000782784F84570236831681F0651F8045B29
:1036E00002D45F0648BFADB23160D90744BF43F092
:1036F000200323601DB11023D4E72848E9E723689D
:1037000023F020032360F6E724480A23CDE733683B
:1037100025686169181D30602E061B6801D5196087
:1037200002E06806FBD5198000232361164697E75F
:1037300033681A1D32601E68626800213046FCF74B
:1037400057FD08B1801B606063682361002384F823
:10375000433085E72369324649464046D047013029
:1037600088D023689B0714D4E068039B9842B8BFB5
:10377000184681E70123324649464046D04701308A
:103780003FF478AF0135E36803995B1AAB42F1DC93
:10379000EAE7002504F11906F5E700BFB13B000890
:1037A000C23B0008884210B501EB020402D98442F2
:1037B000234607D8431EA14208D011F8012B03F875
:1037C000012FF8E7024401468A4200D110BD13F8E8
:1037D000014D02F8014DF7E738B5064D00230446C8
:1037E00008462B60FCF712FF431C02D12B6803B183
:1037F000236038BDB80200200A44914200F1FF3333
:1038000000D1704710B511F8014B03F8014F9142F8
:10381000F9D110BD2DE9F041804615460C4621B97D
:10382000BDE8F0411146FFF73FBC2AB9FFF7D0FBD6
:1038300000242046BDE8F08100F01AF885420646D3
:1038400002D8B5EB500FF4D829464046FFF72CFCC0
:1038500007460028ECD0B5422A46214628BF32460A
:10386000FFF7CAFF21464046FFF7B2FB3C46E0E7C0
:1038700051F8043C181F002BBCBF0B58C0187047F0
:103880002DE9F047089D0C46002B4ED194468C45FF
:103890008646B2FA82F262D94AB1C2F1200391405F
:1038A00020FA03F30CFA02FC194300FA02FE4FEA75
:1038B0001C471FFA8CF6B1FBF7F44FEA1E4307FBD7
:1038C000141143EA014304FB06F199420AD91CEBA7
:1038D000030304F1FF3080F01281994240F20F811E
:1038E000023C6344591A1FFA8EF3B1FBF7F007FB51
:1038F000101143EA014300FB06F69E420AD91CEB75
:10390000030300F1FF3180F0FC809E4240F2F98019
:10391000634402389B1B40EA044000211DB1D340A0
:103920000022C5E90032BDE8F0878B4205D90DB110
:10393000C5E9000100210846F5E7B3FA83F1002943
:1039400046D1A34202D39042C0F0F080861A64EBC5
:1039500003030120002DE6D0C5E90063E3E7002A58
:1039600040F09080A1EB0C044FEA1C481FFA8CF742
:103970000121B4FBF8F64FEA1E4308FB164443EA64
:10398000044307FB06F0984208D91CEB030306F139
:10399000FF3402D2984200F2CD8026461C1A1FFA4C
:1039A0008EF3B4FBF8F008FB104443EA044300FB39
:1039B00007F79F4208D91CEB030300F1FF3402D242
:1039C0009F4200F2B0802046DB1B40EA0640A5E79C
:1039D000C1F120068B4022FA06F71F4320FA06FCAD
:1039E00004FA01F343EA0C03F44000FA01F8380C3E
:1039F0004FEA1349B4FBF0FE1FFA87FC00FB1E449C
:103A000049EA04440EFB0CF9A14502FA01F20AD975
:103A10003C190EF1FF3A80F08480A14540F281808C
:103A2000AEF1020E3C44A4EB09041FFA83F9B4FB87
:103A3000F0F300FB134449EA044403FB0CFCA445E7
:103A400007D93C1903F1FF3067D2A44565D9023B81
:103A50003C4443EA0E40A0FB0293A4EB0C049C42BE
:103A6000CE469C4651D34ED055B1B8EB0E0364EB15
:103A70000C0404FA06F6CB401E43CC40C5E90064B2
:103A8000002150E7C2F1200320FA03F10CFA02FCF6
:103A900024FA03F394400C434FEA1C4800FA02FE58
:103AA0001FFA8CF7B3FBF8F008FB1031230C43EA44
:103AB000014300FB07F1994208D91CEB030300F115
:103AC000FF362CD299422AD9023863445B1AA4B239
:103AD000B3FBF8F108FB113344EA034401FB07F39D
:103AE000A34208D91CEB040401F1FF3613D2A34210
:103AF00011D902396444E41A41EA004139E7044625
:103B0000F0E6084606E7C845AED2B9EB020E63EB15
:103B1000070C0138A8E73146EDE7034699E7304640
:103B2000D4E7D6467FE7634402384DE7064623468E
:103B300008460FE7023E634430E700BFF8B500BF18
:103B4000F8BC08BC9E467047F8B500BFF8BC08BC7E
:043B50009E467047D6
:103B540076616C75653A20256C750A0000000000DA
:103B6400010203040000000000000000010203043D
:103B740006070809010002000400060008000A0004
:103B84000C00100020004000800000010804020422
:103B9400080101010101010307010000232D302B5D
:103BA4002000686C4C00656667454647003031323A
:103BB4003334353637383941424344454600303191
:103BC40032333435363738396162636465660000F0
:083BD4000CC6FF7F0100000098
:043BDC00E9020008F2
:043BE000C502000812
:103BE4000024F40001000000100000001000002078
:103BF4000000000080010020E801002050020020A5
:103C040000000000000000000000000000000000B0
:103C140000000000000000000000000000000000A0
:103C24000000000000000000000000000000000090
:0C3C340000000000000000000000000084
:0400000508002ED5EC
:00000001FF
